{
  "_format": "hh-sol-artifact-1",
  "contractName": "DegenToken",
  "sourceName": "contracts/Degen.sol",
  "abi": [
    {
      "inputs": [],
      "stateMutability": "nonpayable",
      "type": "constructor"
    },
    {
      "anonymous": false,
      "inputs": [
        {
          "indexed": true,
          "internalType": "address",
          "name": "owner",
          "type": "address"
        },
        {
          "indexed": true,
          "internalType": "address",
          "name": "spender",
          "type": "address"
        },
        {
          "indexed": false,
          "internalType": "uint256",
          "name": "amount",
          "type": "uint256"
        }
      ],
      "name": "Approval",
      "type": "event"
    },
    {
      "anonymous": false,
      "inputs": [
        {
          "indexed": true,
          "internalType": "address",
          "name": "player",
          "type": "address"
        },
        {
          "indexed": false,
          "internalType": "string",
          "name": "itemName",
          "type": "string"
        },
        {
          "indexed": false,
          "internalType": "uint256",
          "name": "amount",
          "type": "uint256"
        }
      ],
      "name": "ItemRedeemed",
      "type": "event"
    },
    {
      "anonymous": false,
      "inputs": [
        {
          "indexed": true,
          "internalType": "address",
          "name": "sender",
          "type": "address"
        },
        {
          "indexed": true,
          "internalType": "address",
          "name": "reciever",
          "type": "address"
        },
        {
          "indexed": false,
          "internalType": "uint256",
          "name": "amount",
          "type": "uint256"
        }
      ],
      "name": "Transfer",
      "type": "event"
    },
    {
      "inputs": [
        {
          "internalType": "address",
          "name": "_owner",
          "type": "address"
        },
        {
          "internalType": "address",
          "name": "_delegate",
          "type": "address"
        }
      ],
      "name": "allowance",
      "outputs": [
        {
          "internalType": "uint256",
          "name": "",
          "type": "uint256"
        }
      ],
      "stateMutability": "view",
      "type": "function"
    },
    {
      "inputs": [
        {
          "internalType": "address",
          "name": "_delegate",
          "type": "address"
        },
        {
          "internalType": "uint256",
          "name": "_amountOfToken",
          "type": "uint256"
        }
      ],
      "name": "approve",
      "outputs": [],
      "stateMutability": "nonpayable",
      "type": "function"
    },
    {
      "inputs": [
        {
          "internalType": "address",
          "name": "_address",
          "type": "address"
        }
      ],
      "name": "balanceOf",
      "outputs": [
        {
          "internalType": "uint256",
          "name": "",
          "type": "uint256"
        }
      ],
      "stateMutability": "view",
      "type": "function"
    },
    {
      "inputs": [
        {
          "internalType": "uint256",
          "name": "_amount",
          "type": "uint256"
        }
      ],
      "name": "burn",
      "outputs": [],
      "stateMutability": "nonpayable",
      "type": "function"
    },
    {
      "inputs": [],
      "name": "decimals",
      "outputs": [
        {
          "internalType": "uint8",
          "name": "",
          "type": "uint8"
        }
      ],
      "stateMutability": "view",
      "type": "function"
    },
    {
      "inputs": [
        {
          "internalType": "address",
          "name": "to",
          "type": "address"
        },
        {
          "internalType": "uint256",
          "name": "_amount",
          "type": "uint256"
        }
      ],
      "name": "mint",
      "outputs": [],
      "stateMutability": "nonpayable",
      "type": "function"
    },
    {
      "inputs": [],
      "name": "name",
      "outputs": [
        {
          "internalType": "string",
          "name": "",
          "type": "string"
        }
      ],
      "stateMutability": "view",
      "type": "function"
    },
    {
      "inputs": [],
      "name": "owner",
      "outputs": [
        {
          "internalType": "address",
          "name": "",
          "type": "address"
        }
      ],
      "stateMutability": "view",
      "type": "function"
    },
    {
      "inputs": [
        {
          "internalType": "uint8",
          "name": "_itemId",
          "type": "uint8"
        }
      ],
      "name": "redeemItem",
      "outputs": [],
      "stateMutability": "nonpayable",
      "type": "function"
    },
    {
      "inputs": [],
      "name": "symbol",
      "outputs": [
        {
          "internalType": "string",
          "name": "",
          "type": "string"
        }
      ],
      "stateMutability": "view",
      "type": "function"
    },
    {
      "inputs": [],
      "name": "totalSupply",
      "outputs": [
        {
          "internalType": "uint256",
          "name": "",
          "type": "uint256"
        }
      ],
      "stateMutability": "view",
      "type": "function"
    },
    {
      "inputs": [
        {
          "internalType": "address",
          "name": "_reciever",
          "type": "address"
        },
        {
          "internalType": "uint256",
          "name": "_amountOfToken",
          "type": "uint256"
        }
      ],
      "name": "transfer",
      "outputs": [],
      "stateMutability": "nonpayable",
      "type": "function"
    },
    {
      "inputs": [
        {
          "internalType": "address",
          "name": "_owner",
          "type": "address"
        },
        {
          "internalType": "address",
          "name": "_buyer",
          "type": "address"
        },
        {
          "internalType": "uint256",
          "name": "_amountOfToken",
          "type": "uint256"
        }
      ],
      "name": "transferFrom",
      "outputs": [],
      "stateMutability": "nonpayable",
      "type": "function"
    },
    {
      "inputs": [
        {
          "internalType": "address",
          "name": "_newOwner",
          "type": "address"
        }
      ],
      "name": "transferOwnership",
      "outputs": [],
      "stateMutability": "nonpayable",
      "type": "function"
    }
  ],
  "bytecode": "0x60806040526040518060400160405280601281526020017f446567656e2047616d696e6720546f6b656e0000000000000000000000000000815250600090816100489190610712565b506040518060400160405280600581526020017f444547454e0000000000000000000000000000000000000000000000000000008152506001908161008d9190610712565b506012600360006101000a81548160ff021916908360ff1602179055503480156100b657600080fd5b5033600360016101000a81548173ffffffffffffffffffffffffffffffffffffffff021916908373ffffffffffffffffffffffffffffffffffffffff16021790555061013133600360009054906101000a900460ff16600a6101189190610953565b620f4240610126919061099e565b61029460201b60201c565b6101776040518060400160405280600681526020017f4865616c74680000000000000000000000000000000000000000000000000000815250604661045c60201b60201c565b6101bd6040518060400160405280600581526020017f536b696e73000000000000000000000000000000000000000000000000000000815250603761045c60201b60201c565b6102036040518060400160405280600781526020017f456d626c656d7300000000000000000000000000000000000000000000000000815250601e61045c60201b60201c565b6102496040518060400160405280600681526020017f576561706f6e0000000000000000000000000000000000000000000000000000815250605061045c60201b60201c565b61028f6040518060400160405280600781526020017f4469616d6f6e6400000000000000000000000000000000000000000000000000815250606461045c60201b60201c565b610abb565b600360019054906101000a900473ffffffffffffffffffffffffffffffffffffffff1673ffffffffffffffffffffffffffffffffffffffff163373ffffffffffffffffffffffffffffffffffffffff1614610324576040517f08c379a000000000000000000000000000000000000000000000000000000000815260040161031b90610a3d565b60405180910390fd5b6000600360009054906101000a900460ff16600a6103429190610953565b8261034d919061099e565b905080600560008573ffffffffffffffffffffffffffffffffffffffff1673ffffffffffffffffffffffffffffffffffffffff1681526020019081526020016000205461039a9190610a5d565b600560008573ffffffffffffffffffffffffffffffffffffffff1673ffffffffffffffffffffffffffffffffffffffff16815260200190815260200160002081905550806002546103eb9190610a5d565b6002819055508273ffffffffffffffffffffffffffffffffffffffff16600073ffffffffffffffffffffffffffffffffffffffff167fddf252ad1be2c89b69c2b068fc378daa952ba7f163c4a11628f55a4df523b3ef8360405161044f9190610aa0565b60405180910390a3505050565b6004604051806040016040528084815260200183815250908060018154018082558091505060019003906000526020600020906002020160009091909190915060008201518160000190816104b19190610712565b506020820151816001015550505050565b600081519050919050565b7f4e487b7100000000000000000000000000000000000000000000000000000000600052604160045260246000fd5b7f4e487b7100000000000000000000000000000000000000000000000000000000600052602260045260246000fd5b6000600282049050600182168061054357607f821691505b602082108103610556576105556104fc565b5b50919050565b60008190508160005260206000209050919050565b60006020601f8301049050919050565b600082821b905092915050565b6000600883026105be7fffffffffffffffffffffffffffffffffffffffffffffffffffffffffffffffff82610581565b6105c88683610581565b95508019841693508086168417925050509392505050565b6000819050919050565b6000819050919050565b600061060f61060a610605846105e0565b6105ea565b6105e0565b9050919050565b6000819050919050565b610629836105f4565b61063d61063582610616565b84845461058e565b825550505050565b600090565b610652610645565b61065d818484610620565b505050565b5b818110156106815761067660008261064a565b600181019050610663565b5050565b601f8211156106c6576106978161055c565b6106a084610571565b810160208510156106af578190505b6106c36106bb85610571565b830182610662565b50505b505050565b600082821c905092915050565b60006106e9600019846008026106cb565b1980831691505092915050565b600061070283836106d8565b9150826002028217905092915050565b61071b826104c2565b67ffffffffffffffff811115610734576107336104cd565b5b61073e825461052b565b610749828285610685565b600060209050601f83116001811461077c576000841561076a578287015190505b61077485826106f6565b8655506107dc565b601f19841661078a8661055c565b60005b828110156107b25784890151825560018201915060208501945060208101905061078d565b868310156107cf57848901516107cb601f8916826106d8565b8355505b6001600288020188555050505b505050505050565b7f4e487b7100000000000000000000000000000000000000000000000000000000600052601160045260246000fd5b60008160011c9050919050565b6000808291508390505b600185111561086a57808604811115610846576108456107e4565b5b60018516156108555780820291505b808102905061086385610813565b945061082a565b94509492505050565b600082610883576001905061093f565b81610891576000905061093f565b81600181146108a757600281146108b1576108e0565b600191505061093f565b60ff8411156108c3576108c26107e4565b5b8360020a9150848211156108da576108d96107e4565b5b5061093f565b5060208310610133831016604e8410600b84101617156109155782820a9050838111156109105761090f6107e4565b5b61093f565b6109228484846001610820565b92509050818404811115610939576109386107e4565b5b81810290505b9392505050565b600060ff82169050919050565b600061095e826105e0565b915061096983610946565b92506109967fffffffffffffffffffffffffffffffffffffffffffffffffffffffffffffffff8484610873565b905092915050565b60006109a9826105e0565b91506109b4836105e0565b92508282026109c2816105e0565b915082820484148315176109d9576109d86107e4565b5b5092915050565b600082825260208201905092915050565b7f4f6e6c79206f776e657220697320617574686f72697a65640000000000000000600082015250565b6000610a276018836109e0565b9150610a32826109f1565b602082019050919050565b60006020820190508181036000830152610a5681610a1a565b9050919050565b6000610a68826105e0565b9150610a73836105e0565b9250828201905080821115610a8b57610a8a6107e4565b5b92915050565b610a9a816105e0565b82525050565b6000602082019050610ab56000830184610a91565b92915050565b611d5d80610aca6000396000f3fe608060405234801561001057600080fd5b50600436106100ea5760003560e01c806370a082311161008c578063a9059cbb11610066578063a9059cbb14610225578063d8ef34ed14610241578063dd62ed3e1461025d578063f2fde38b1461028d576100ea565b806370a08231146101b95780638da5cb5b146101e957806395d89b4114610207576100ea565b806323b872dd116100c857806323b872dd14610147578063313ce5671461016357806340c10f191461018157806342966c681461019d576100ea565b806306fdde03146100ef578063095ea7b31461010d57806318160ddd14610129575b600080fd5b6100f76102a9565b604051610104919061142b565b60405180910390f35b610127600480360381019061012291906114e6565b610337565b005b610131610511565b60405161013e9190611535565b60405180910390f35b610161600480360381019061015c9190611550565b610517565b005b61016b610958565b60405161017891906115bf565b60405180910390f35b61019b600480360381019061019691906114e6565b61096b565b005b6101b760048036038101906101b291906115da565b610b33565b005b6101d360048036038101906101ce9190611607565b610c8b565b6040516101e09190611535565b60405180910390f35b6101f1610cd4565b6040516101fe9190611643565b60405180910390f35b61020f610cfa565b60405161021c919061142b565b60405180910390f35b61023f600480360381019061023a91906114e6565b610d88565b005b61025b6004803603810190610256919061168a565b61106d565b005b610277600480360381019061027291906116b7565b611240565b6040516102849190611535565b60405180910390f35b6102a760048036038101906102a29190611607565b6112c7565b005b600080546102b690611726565b80601f01602080910402602001604051908101604052809291908181526020018280546102e290611726565b801561032f5780601f106103045761010080835404028352916020019161032f565b820191906000526020600020905b81548152906001019060200180831161031257829003601f168201915b505050505081565b600073ffffffffffffffffffffffffffffffffffffffff163373ffffffffffffffffffffffffffffffffffffffff16036103a6576040517f08c379a000000000000000000000000000000000000000000000000000000000815260040161039d906117a3565b60405180910390fd5b80600560003373ffffffffffffffffffffffffffffffffffffffff1673ffffffffffffffffffffffffffffffffffffffff1681526020019081526020016000205411610427576040517f08c379a000000000000000000000000000000000000000000000000000000000815260040161041e9061180f565b60405180910390fd5b80600660003373ffffffffffffffffffffffffffffffffffffffff1673ffffffffffffffffffffffffffffffffffffffff16815260200190815260200160002060008473ffffffffffffffffffffffffffffffffffffffff1673ffffffffffffffffffffffffffffffffffffffff168152602001908152602001600020819055508173ffffffffffffffffffffffffffffffffffffffff163373ffffffffffffffffffffffffffffffffffffffff167f8c5be1e5ebec7d5bd14f71427d1e84f3dd0314c0f7b2291e5b200ac8c7c3b925836040516105059190611535565b60405180910390a35050565b60025481565b600073ffffffffffffffffffffffffffffffffffffffff168373ffffffffffffffffffffffffffffffffffffffff1603610586576040517f08c379a000000000000000000000000000000000000000000000000000000000815260040161057d906117a3565b60405180910390fd5b600073ffffffffffffffffffffffffffffffffffffffff168273ffffffffffffffffffffffffffffffffffffffff16036105f5576040517f08c379a00000000000000000000000000000000000000000000000000000000081526004016105ec906117a3565b60405180910390fd5b600560008473ffffffffffffffffffffffffffffffffffffffff1673ffffffffffffffffffffffffffffffffffffffff1681526020019081526020016000205481111561064157600080fd5b600660008473ffffffffffffffffffffffffffffffffffffffff1673ffffffffffffffffffffffffffffffffffffffff16815260200190815260200160002060003373ffffffffffffffffffffffffffffffffffffffff1673ffffffffffffffffffffffffffffffffffffffff168152602001908152602001600020548111156106ca57600080fd5b80600560008573ffffffffffffffffffffffffffffffffffffffff1673ffffffffffffffffffffffffffffffffffffffff16815260200190815260200160002054610715919061185e565b600560008573ffffffffffffffffffffffffffffffffffffffff1673ffffffffffffffffffffffffffffffffffffffff1681526020019081526020016000208190555080600660008573ffffffffffffffffffffffffffffffffffffffff1673ffffffffffffffffffffffffffffffffffffffff16815260200190815260200160002060003373ffffffffffffffffffffffffffffffffffffffff1673ffffffffffffffffffffffffffffffffffffffff168152602001908152602001600020546107e0919061185e565b600660008573ffffffffffffffffffffffffffffffffffffffff1673ffffffffffffffffffffffffffffffffffffffff16815260200190815260200160002060003373ffffffffffffffffffffffffffffffffffffffff1673ffffffffffffffffffffffffffffffffffffffff1681526020019081526020016000208190555080600560008473ffffffffffffffffffffffffffffffffffffffff1673ffffffffffffffffffffffffffffffffffffffff168152602001908152602001600020546108ab9190611892565b600560008473ffffffffffffffffffffffffffffffffffffffff1673ffffffffffffffffffffffffffffffffffffffff168152602001908152602001600020819055508173ffffffffffffffffffffffffffffffffffffffff168373ffffffffffffffffffffffffffffffffffffffff167fddf252ad1be2c89b69c2b068fc378daa952ba7f163c4a11628f55a4df523b3ef8360405161094b9190611535565b60405180910390a3505050565b600360009054906101000a900460ff1681565b600360019054906101000a900473ffffffffffffffffffffffffffffffffffffffff1673ffffffffffffffffffffffffffffffffffffffff163373ffffffffffffffffffffffffffffffffffffffff16146109fb576040517f08c379a00000000000000000000000000000000000000000000000000000000081526004016109f290611912565b60405180910390fd5b6000600360009054906101000a900460ff16600a610a199190611a65565b82610a249190611ab0565b905080600560008573ffffffffffffffffffffffffffffffffffffffff1673ffffffffffffffffffffffffffffffffffffffff16815260200190815260200160002054610a719190611892565b600560008573ffffffffffffffffffffffffffffffffffffffff1673ffffffffffffffffffffffffffffffffffffffff1681526020019081526020016000208190555080600254610ac29190611892565b6002819055508273ffffffffffffffffffffffffffffffffffffffff16600073ffffffffffffffffffffffffffffffffffffffff167fddf252ad1be2c89b69c2b068fc378daa952ba7f163c4a11628f55a4df523b3ef83604051610b269190611535565b60405180910390a3505050565b8080610b3e33610c8b565b1015610b7f576040517f08c379a0000000000000000000000000000000000000000000000000000000008152600401610b7690611b3e565b60405180910390fd5b81600560003373ffffffffffffffffffffffffffffffffffffffff1673ffffffffffffffffffffffffffffffffffffffff16815260200190815260200160002054610bca919061185e565b600560003373ffffffffffffffffffffffffffffffffffffffff1673ffffffffffffffffffffffffffffffffffffffff1681526020019081526020016000208190555081600254610c1b919061185e565b600281905550600073ffffffffffffffffffffffffffffffffffffffff163373ffffffffffffffffffffffffffffffffffffffff167fddf252ad1be2c89b69c2b068fc378daa952ba7f163c4a11628f55a4df523b3ef84604051610c7f9190611535565b60405180910390a35050565b6000600560008373ffffffffffffffffffffffffffffffffffffffff1673ffffffffffffffffffffffffffffffffffffffff168152602001908152602001600020549050919050565b600360019054906101000a900473ffffffffffffffffffffffffffffffffffffffff1681565b60018054610d0790611726565b80601f0160208091040260200160405190810160405280929190818152602001828054610d3390611726565b8015610d805780601f10610d5557610100808354040283529160200191610d80565b820191906000526020600020905b815481529060010190602001808311610d6357829003601f168201915b505050505081565b600073ffffffffffffffffffffffffffffffffffffffff168273ffffffffffffffffffffffffffffffffffffffff1603610df7576040517f08c379a0000000000000000000000000000000000000000000000000000000008152600401610dee906117a3565b60405180910390fd5b600073ffffffffffffffffffffffffffffffffffffffff163373ffffffffffffffffffffffffffffffffffffffff1603610e66576040517f08c379a0000000000000000000000000000000000000000000000000000000008152600401610e5d906117a3565b60405180910390fd5b600560003373ffffffffffffffffffffffffffffffffffffffff1673ffffffffffffffffffffffffffffffffffffffff16815260200190815260200160002054811115610ee8576040517f08c379a0000000000000000000000000000000000000000000000000000000008152600401610edf90611bd0565b60405180910390fd5b80600560003373ffffffffffffffffffffffffffffffffffffffff1673ffffffffffffffffffffffffffffffffffffffff16815260200190815260200160002054610f33919061185e565b600560003373ffffffffffffffffffffffffffffffffffffffff1673ffffffffffffffffffffffffffffffffffffffff1681526020019081526020016000208190555080600560008473ffffffffffffffffffffffffffffffffffffffff1673ffffffffffffffffffffffffffffffffffffffff16815260200190815260200160002054610fc19190611892565b600560008473ffffffffffffffffffffffffffffffffffffffff1673ffffffffffffffffffffffffffffffffffffffff168152602001908152602001600020819055508173ffffffffffffffffffffffffffffffffffffffff163373ffffffffffffffffffffffffffffffffffffffff167fddf252ad1be2c89b69c2b068fc378daa952ba7f163c4a11628f55a4df523b3ef836040516110619190611535565b60405180910390a35050565b6004805490508160ff16106110b7576040517f08c379a00000000000000000000000000000000000000000000000000000000081526004016110ae90611c3c565b60405180910390fd5b600060048260ff16815481106110d0576110cf611c5c565b5b90600052602060002090600202016040518060400160405290816000820180546110f990611726565b80601f016020809104026020016040519081016040528092919081815260200182805461112590611726565b80156111725780601f1061114757610100808354040283529160200191611172565b820191906000526020600020905b81548152906001019060200180831161115557829003601f168201915b505050505081526020016001820154815250509050806020015161119533610c8b565b10156111d6576040517f08c379a00000000000000000000000000000000000000000000000000000000081526004016111cd90611cd7565b60405180910390fd5b6111e4308260200151610d88565b3373ffffffffffffffffffffffffffffffffffffffff167f91da08622b2ad4651905e205c6f9127b046358517ff39254cf32a0350e1d985f82600001518360200151604051611234929190611cf7565b60405180910390a25050565b6000600660008473ffffffffffffffffffffffffffffffffffffffff1673ffffffffffffffffffffffffffffffffffffffff16815260200190815260200160002060008373ffffffffffffffffffffffffffffffffffffffff1673ffffffffffffffffffffffffffffffffffffffff16815260200190815260200160002054905092915050565b600360019054906101000a900473ffffffffffffffffffffffffffffffffffffffff1673ffffffffffffffffffffffffffffffffffffffff163373ffffffffffffffffffffffffffffffffffffffff1614611357576040517f08c379a000000000000000000000000000000000000000000000000000000000815260040161134e90611912565b60405180910390fd5b80600360016101000a81548173ffffffffffffffffffffffffffffffffffffffff021916908373ffffffffffffffffffffffffffffffffffffffff16021790555050565b600081519050919050565b600082825260208201905092915050565b60005b838110156113d55780820151818401526020810190506113ba565b60008484015250505050565b6000601f19601f8301169050919050565b60006113fd8261139b565b61140781856113a6565b93506114178185602086016113b7565b611420816113e1565b840191505092915050565b6000602082019050818103600083015261144581846113f2565b905092915050565b600080fd5b600073ffffffffffffffffffffffffffffffffffffffff82169050919050565b600061147d82611452565b9050919050565b61148d81611472565b811461149857600080fd5b50565b6000813590506114aa81611484565b92915050565b6000819050919050565b6114c3816114b0565b81146114ce57600080fd5b50565b6000813590506114e0816114ba565b92915050565b600080604083850312156114fd576114fc61144d565b5b600061150b8582860161149b565b925050602061151c858286016114d1565b9150509250929050565b61152f816114b0565b82525050565b600060208201905061154a6000830184611526565b92915050565b6000806000606084860312156115695761156861144d565b5b60006115778682870161149b565b93505060206115888682870161149b565b9250506040611599868287016114d1565b9150509250925092565b600060ff82169050919050565b6115b9816115a3565b82525050565b60006020820190506115d460008301846115b0565b92915050565b6000602082840312156115f0576115ef61144d565b5b60006115fe848285016114d1565b91505092915050565b60006020828403121561161d5761161c61144d565b5b600061162b8482850161149b565b91505092915050565b61163d81611472565b82525050565b60006020820190506116586000830184611634565b92915050565b611667816115a3565b811461167257600080fd5b50565b6000813590506116848161165e565b92915050565b6000602082840312156116a05761169f61144d565b5b60006116ae84828501611675565b91505092915050565b600080604083850312156116ce576116cd61144d565b5b60006116dc8582860161149b565b92505060206116ed8582860161149b565b9150509250929050565b7f4e487b7100000000000000000000000000000000000000000000000000000000600052602260045260246000fd5b6000600282049050600182168061173e57607f821691505b602082108103611751576117506116f7565b5b50919050565b7f41646472657373207a65726f206973206e6f7420616c6c6f7765640000000000600082015250565b600061178d601b836113a6565b915061179882611757565b602082019050919050565b600060208201905081810360008301526117bc81611780565b9050919050565b7f42616c616e6365206973206e6f7420656e6f7567680000000000000000000000600082015250565b60006117f96015836113a6565b9150611804826117c3565b602082019050919050565b60006020820190508181036000830152611828816117ec565b9050919050565b7f4e487b7100000000000000000000000000000000000000000000000000000000600052601160045260246000fd5b6000611869826114b0565b9150611874836114b0565b925082820390508181111561188c5761188b61182f565b5b92915050565b600061189d826114b0565b91506118a8836114b0565b92508282019050808211156118c0576118bf61182f565b5b92915050565b7f4f6e6c79206f776e657220697320617574686f72697a65640000000000000000600082015250565b60006118fc6018836113a6565b9150611907826118c6565b602082019050919050565b6000602082019050818103600083015261192b816118ef565b9050919050565b60008160011c9050919050565b6000808291508390505b6001851115611989578086048111156119655761196461182f565b5b60018516156119745780820291505b808102905061198285611932565b9450611949565b94509492505050565b6000826119a25760019050611a5e565b816119b05760009050611a5e565b81600181146119c657600281146119d0576119ff565b6001915050611a5e565b60ff8411156119e2576119e161182f565b5b8360020a9150848211156119f9576119f861182f565b5b50611a5e565b5060208310610133831016604e8410600b8410161715611a345782820a905083811115611a2f57611a2e61182f565b5b611a5e565b611a41848484600161193f565b92509050818404811115611a5857611a5761182f565b5b81810290505b9392505050565b6000611a70826114b0565b9150611a7b836115a3565b9250611aa87fffffffffffffffffffffffffffffffffffffffffffffffffffffffffffffffff8484611992565b905092915050565b6000611abb826114b0565b9150611ac6836114b0565b9250828202611ad4816114b0565b91508282048414831517611aeb57611aea61182f565b5b5092915050565b7f4e6f7420656e6f75676820446567656e20546f6b656e00000000000000000000600082015250565b6000611b286016836113a6565b9150611b3382611af2565b602082019050919050565b60006020820190508181036000830152611b5781611b1b565b9050919050565b7f496e73756666696369656e742062616c616e636520666f72207468697320747260008201527f616e736665720000000000000000000000000000000000000000000000000000602082015250565b6000611bba6026836113a6565b9150611bc582611b5e565b604082019050919050565b60006020820190508181036000830152611be981611bad565b9050919050565b7f496e76616c6964206974656d2049440000000000000000000000000000000000600082015250565b6000611c26600f836113a6565b9150611c3182611bf0565b602082019050919050565b60006020820190508181036000830152611c5581611c19565b9050919050565b7f4e487b7100000000000000000000000000000000000000000000000000000000600052603260045260246000fd5b7f496e73756666696369656e742062616c616e6365000000000000000000000000600082015250565b6000611cc16014836113a6565b9150611ccc82611c8b565b602082019050919050565b60006020820190508181036000830152611cf081611cb4565b9050919050565b60006040820190508181036000830152611d1181856113f2565b9050611d206020830184611526565b939250505056fea264697066735822122053a385f1380e27ffd093152497d34eda66729ec7e4da91f8c947dac4fab2034364736f6c634300081b0033",
  "linkReferences": {},
  "deployedLinkReferences": {}
}